:020000040800F2
:1000000000200020D5010008DD010008E101000802
:1000100000000000000000000000000000000000E0
:1000200000000000000000000000000015020008B1
:100030000000000000000000190200081D02000876
:1000400025020008250200082502000825020008F4
:1000500025020008A90F0008BD10000825020008AD
:1000600025020008250200082502000825020008D4
:10007000250200082502000825020008BD0E000820
:10008000190F0008250200080000000025020008E2
:1000900025020008250200082502000825020008A4
:1000A0002502000825020008250200082502000894
:1000B00025020008000000002502000830B583B0CA
:1000C00000F09CFD314B324A1360324A1360324BD0
:1000D000324A03E0116819600433043230498B421C
:1000E000F8D32B4B1A682F4B9A4204D1294B1A682C
:1000F0002D4B9A4200D0FEE7244B2C4A13602C4A29
:1001000013602C4B02E000221A6004332A4A934207
:10011000F9D3264B1B68002B03D1254B1B68002B02
:1001200000D0FEE700F0C6FD694601A800F0CCFC57
:10013000224C234B1C1BA410002504E0AA001F4BDB
:10014000D35898470135AC42F8DC1E4C1E4B1C1BA3
:10015000A410002504E0AA001A4BD3589847013593
:10016000AC42F8DC0099019801F03EF90500174C0B
:10017000174B1C1BA41004E0013CA200134BD358E6
:100180009847002CF8DC280000F07AFCBABADECAE6
:1001900000000020A004002000000020CC3900084E
:1001A000A40400207856341232547698A404002017
:1001B000B8050020A4040020BC050020500200085F
:1001C00050020008500200085002000850020008C7
:1001D0005002000810B5FFF771FFC04600BEFEE7F1
:1001E00004207146084202D0EFF3098001E0EFF3EA
:1001F000088071460A4A104770B504000D00044893
:1002000000F0A2FC2900200000F0B4FC00BEFEE7D4
:100210002837000800BEFEE700BEFEE7704700007A
:08022000F901000800BEFEE731
:10022800CC39000800000020A4040020CC390008C4
:100238000000000000000000A4040020BC0500200D
:080248000000000000000000AE
:1002500010B504000E4B1978FA20800001F004F963
:1002600001000C4B186801F0FFF800F06BF8002853
:100270000AD1032C0AD800222100013800F024F80A
:10028000054B1C60002002E0012000E0012010BDB1
:1002900008000020140000200400002010B5064AC9
:1002A000116810230B4313600320FFF7D1FF01F007
:1002B000D9F8002010BDC04600200240014B18684C
:1002C0007047C0464C05002070B505000C0003299E
:1002D00003D98B21184800F0F5FC002D12DBAA0889
:1002E0001648C0329200115803231D40ED00FF262E
:1002F0003300AB409943A30134001C40AC400C4395
:10030000145017E0EDB20F222A40083A9208063244
:1003100092000B4B9C466244516803231D40ED0044
:10032000FF200300AB409943A30118400400AC40F8
:100330000C43546070BDC0461436000800E100E074
:1003400000ED00E001380A4B98420FD8094A50608E
:1003500009490B6A1B021B0AC020000603430B62FB
:100360000023936007331360002000E001207047F2
:10037000FFFFFF0010E000E000ED00E010B504001A
:10038000042806D0002804D02621FF31084800F0B8
:1003900099FC042C05D1074A116804230B43136010
:1003A00004E0044A136804218B43136010BDC04667
:1003B0001436000810E000E0014B18687047C04692
:1003C00014000020F8B505000F0016001C0039E0ED
:1003D000631C37D0FFF772FF069BC01A844201D915
:1003E000002C2FD12A685368E0218B43536082236D
:1003F0005B006A689A420DD1AB6880221202934278
:1004000003D08022D200934204D12A68136840218D
:100410008B43136080239B01AA6A9A420AD12A68FF
:1004200011680E4B0B4013602A6813688021890104
:100430000B43136001225D23EA540022013BEA547E
:10044000032009E02B689B683A009A431300594245
:100450005941B142BCD10020F8BDC046FFDFFFFFCB
:10046000F8B507000C0015001E0040E0C023DB00BB
:100470009C4202D1002D00D1137B731C37D0FFF7B3
:100480001DFF069BC01A864201D9002E2FD13A6863
:100490005368E0218B43536082235B007A689A4261
:1004A0000DD1BB6880221202934203D08022D20079
:1004B000934204D13A68136840218B431360802330
:1004C0009B01BA6A9A420AD13A6811680B4B0B40F9
:1004D00013603A681368802189010B43136001227D
:1004E0005D23FA540022013BFA54032005E03A68E8
:1004F00093682340AB42B9D10020F8BDFFDFFFFF76
:1005000070B582B004000D00160000920B000022AE
:10051000C0214901FFF7A4FF002805D0226E202347
:100520001343236603201DE000962B000022802148
:100530002000FFF747FF002805D0226E2023134339
:10054000236603200EE000962B000022C021C90084
:100550002000FFF785FF002804D0226E20231343DC
:100560002366032002B070BD7047C04670B5041EFC
:1005700000D14DE10368A74A934207D0A64A9342AF
:1005800004D0A8214900A54800F09CFB6368002B1B
:1005900008D082225200934204D05221FF319F485A
:1005A00000F090FBA368002B0CD08022D200934275
:1005B00008D080221202934204D0A9214900974812
:1005C00000F080FBE368F0221201934234D0013A3C
:1005D000FF3A934230D0013AFF3A93422CD0013A8D
:1005E000FF3A934228D0013AFF3A934224D0013A8D
:1005F000FF3A934220D0013AFF3A93421CD0013A8D
:10060000FF3A934218D0013AFF3A934214D0013A8C
:10061000FF3A934210D0013AFF3A93420CD0013A8C
:10062000FF3A934208D0013AFF3A934204D0542152
:10063000FF317A4800F046FBA36980229200934282
:100640000AD0002B08D08022D202934204D0AA21E3
:100650004900724800F036FB636B082B06D0002B74
:1006600004D05621FF316D4800F02CFBE369002BCC
:1006700012D0082B10D0102B0ED0182B0CD0202B02
:100680000AD0282B08D0302B06D0382B04D0AB2131
:100690004900624800F016FB236A002B06D0802B2D
:1006A00004D05821FF315D4800F00CFB636A002B39
:1006B00006D0102B04D0AC214900584800F002FBB2
:1006C000636A002B11D12369002B06D0022B04D0C2
:1006D0005C21FF31514800F0F5FA6369012B04D920
:1006E000AE2149004D4800F0EDFAA36A002B08D076
:1006F00080229201934204D06021FF31474800F0EC
:10070000E1FA80239B01A26A9A4213D1E36A591E3F
:10071000434A914201D8DB0704D4B12149003F4844
:1007200000F0D0FA236B022B04D96421FF313B483F
:1007300000F0C8FA5D23E35C002B05D100225C3396
:10074000E2542000FFF710FF02225D23E2542268EA
:10075000136840218B431360E268E023DB009A4278
:1007600001D9002001E080204001F0231B019A42C2
:1007700005D0E023DB009A4201D00023A362236B63
:10078000002B08D1E023DB009A4202D90223236325
:1007900001E00123236323686268A1680A43216999
:1007A0000A4361690A4380218900A56929400A43F7
:1007B000E1690A43216A0A43A16A0A431A60236B6A
:1007C000022B05D122681368802109010B431360B5
:1007D0002168628B04231340626A1343626B1343E4
:1007E000E268134303434B6080239B01A26A9A4251
:1007F00002D12368E26A1A612268D169094B0B4071
:10080000D3610023236601225D33E254002000E01F
:10081000012070BD0030014000380040483600081B
:10082000FEFF0000FFF7FFFFF0B585B004000F00EA
:1008300016001D00E023DB00C2689A4201D8012E99
:1008400006D9FB0704D5CB2189008B4800F03AFA82
:10085000A368002B08D080221202934204D0CC213E
:100860008900854800F02EFA5C23E35C012B00D15F
:10087000FEE001225C23E254FFF720FD01905D239E
:10088000E35C012B00D0DDE0002F00D1DCE0002E86
:1008900000D1DBE003225C33E25400232366A7632C
:1008A000A687E68723644132A3520232A35223650E
:1008B000E36480231B02A2689A4205D12268136870
:1008C0008021C9010B43136080239B01A26A9A42D5
:1008D0000AD122681168694B0B40136022681368C3
:1008E000802189010B43136023681A68520603D4E0
:1008F000196840220A431A60E023DB00E2689A424A
:1009000030D96368002B01D0012E26D12368A26B59
:100910001288DA60A36B0233A363E38F013B9BB2BF
:10092000E3871AE023689A6892070AD5A26B1288B7
:10093000DA60A36B0233A363E38F013B9BB2E387CF
:100940000BE0FFF7BBFC019BC01AA84202D36B1C53
:1009500000D07DE0002D00D17CE0E38F9BB2002B26
:10096000E0D14CE06368002B01D0012E43D1E38F2E
:100970009BB2012B0BD92368A26B1288DA60A36BA0
:100980000233A363E38F023B9BB2E38733E0A36BA5
:100990001B7822681373A36B0133A363E38F013BBE
:1009A0009BB2E38727E0226893689B0719D5E38F02
:1009B0009BB2012B0AD9A36B1B88D360A36B0233B4
:1009C000A363E38F023B9BB2E38714E0A36B1B7826
:1009D0001373A36B0133A363E38F013B9BB2E387E4
:1009E00009E0FFF76BFC019BC01A854201D86B1C24
:1009F00032D1002D32D0E38F9BB2002BD3D1802394
:100A00009B01A26A9A4205D122681368802149019C
:100A10000B431360019A29002000FFF771FD0028A5
:100A200001D020232366A368002B06D103932368FB
:100A3000DA6803929B680393039B236E002B0FD10C
:100A400000200EE002200CE001200AE0012008E076
:100A5000032006E0032004E0032002E0032000E07E
:100A6000012001225D23E2540022013BE25400E018
:100A7000022005B0F0BDC04648360008FFDFFFFF8A
:100A8000FEE7C04610B503000C4A1268002A02D1E6
:100A90000B490A4A1160094A106803330322934341
:100AA000C318084A934206D902F038F90C230360B0
:100AB0000120404201E0014A136010BDA80400205B
:100AC000BC050020001C002001230360014B0B60CB
:100AD0007047C0460C000020F0B54F464646C0B4F3
:100AE00087B0040001914356002B1FD10426301C0F
:100AF000211CABBE041C1CE03E00102F00D91026A8
:100B0000002305E00022A25602A9CA540133013491
:100B1000B342F7D302AA914600224946CA5404259B
:100B2000281C4946ABBE8046BF1B00E0019F002F3A
:100B3000E2D1019807B00CBC90469946F0BDC04682
:100B400010B5FFF7C9FF10BD0FB400B583B004ABFB
:100B500004CB01938021064802F04EF9002803DD02
:100B600001000348FFF7ECFF03B008BC04B01847CE
:100B7000B004002070B504000D001548FFF7E4FF35
:100B800021681448FFF7E0FF61681348FFF7DCFFB6
:100B9000A1681248FFF7D8FFE1681148FFF7D4FFBA
:100BA00021691048FFF7D0FF61690F48FFF7CCFFBC
:100BB000A1690E48FFF7C8FFE1690D48FFF7C4FFC0
:100BC0000C48FFF7C1FF29000B48FFF7BDFF70BDC0
:100BD000783600088836000898360008A8360008DD
:100BE000B8360008C8360008D8360008E8360008CD
:100BF000F8360008083700081037000810B500F074
:100C000001F810BD7047C04610B51E4B5B680C2242
:100C10001340042B07D0082B09D0002B22D11A4AED
:100C20001A4B1A6021E0184A184B1A601DE0154B48
:100C30005C685A68802040020240A40C0F210C40DE
:100C40000234DB6A19400131824206D10E4800F0BD
:100C50000BFC44430D4B1C6007E00D4844430B4B19
:100C60001C6002E0084A094B1A60064B5B681B09CE
:100C70000F221340074AD35C044A1168D94011601F
:100C800010BDC0460010024000127A00140000207F
:100C900000093D003837000810B5FFF78DFBFA2139
:100CA000890000F0E1FBFFF74DFB0420FFF766FB36
:100CB00010BDC04610B5FFF7F1FAFFF7EDFFFFF7E3
:100CC000A3FF10BD10B50A0001000248FFF73CFF6A
:100CD000FEE7C0464837000810B5104A1168104BAF
:100CE0000B4013600D4B1B689B01FBD40B4BA022E8
:100CF00092035A601A68802149040A431A60074B1C
:100D00001B689B01FBD505494B6803229343013ABD
:100D100013434B60FFF778FF10BDC0460010024040
:100D2000FFFFFFFE10B501F057FE0022014B00F05F
:100D300071FF10BD0000484010B50020034900F0CD
:100D400069FF0022024B00F039FC10BD80842E4167
:100D50000000E03F10B50F4A5369802189020B4320
:100D600053619023DB051A680324A2431A601A68B2
:100D70000C2082431A601A6830218A431A60DA68AC
:100D8000A243DA60DA688243DA60DA688A43DA60BA
:100D900010BDC046001002400B4A53698021C902B1
:100DA0000B435361094B1A6880218A431A60196802
:100DB000074A0A401A60DA68C0218A43DA60D968B3
:100DC000044A0A40DA6070470010024000040048FC
:100DD000FFF7FFFFFFF3FFFF174A936980218900A8
:100DE0000B4393619022D2051368C02109010B4384
:100DF0001360124BDA6818218A43DA60D96820221E
:100E00009143D960D968802040010143D960D968F5
:100E1000802080010143D960996A0A439A62596926
:100E200007220A435A61996801220A439A60034BD8
:100E30001B68DB07FBD5704700100240002401400F
:100E40000B4AD369802189050B43D3619022D205D7
:100E50001368C02189000B431360064B19680122F7
:100E60000A431A601A6806218A431A607047C0460E
:100E7000001002400074004010B50E49CB690122F9
:100E80001343CB618023DB058C211960002199621B
:100E90000139D9625A610848C324A40001590902E2
:100EA000090A0151802109020160D9680A43DA6008
:100EB00010BDC0460010024000E100E010B58023E4
:100EC000DB051B69DB070BD50648FFF73DFE8023DA
:100ED000DB05196901229143196119680A431A60F7
:100EE00010BDC04678370008074AD16902230B437A
:100EF000D361064B80221A60054A9A62054ADA627B
:100F000001225A617047C0460010024000040040B0
:100F10007FBB0000FFFF000010B5084B1B69DB071B
:100F20000AD50748FFF710FE044B196901229143C7
:100F3000196119680A431A6010BDC04600040040D8
:100F400078370008134A9168F0231B020B40936026
:100F5000114B996807220A439A60196801220A43D3
:100F60001A601A6802218A431A60196804220A4327
:100F70001A600A4BC12292009858094901409950C1
:100F8000985808490140995020221A6020321A606E
:100F90007047C046000001400004014000E100E04D
:100FA000FF00FFFFFFFF00FF00B589B0002307939C
:100FB0000020002104900591029003910193009379
:100FC000384B5B69DB0721D5374A012311684B4059
:100FD00013600021354A1160002B09D1314B19688B
:100FE00002220A431A601A6804218A431A6008E040
:100FF0002C4B1A6802218A431A60196804220A439A
:101000001A60284A516901230B435361254B5B69E0
:101010009B0744D5264B1B68002B0AD18023DB0598
:1010200000225A621A6801210A431A60204B196093
:1010300030E08023DB0519681E4A0A401A605B6AAB
:1010400007930798FFF76EFE01F04EFC01F082FC5B
:10105000049005910798049A059BFFF76DFE029096
:1010600003910498059900F08BFA01900298039976
:1010700000F086FA00900D4B1B68042B07DC0099EA
:101080000D48FFF761FD094A136801331360002220
:10109000074B1A60034A516902230B43536109B09D
:1010A00000BDC046000401401804002030050020A7
:1010B00034050020FEFF00008437000800B589B029
:1010C00000230793002000210490059102900391D2
:1010D00001930093234B5B695B0740D5224B1B6850
:1010E000002B0AD18023DB0500225A621A680121F5
:1010F0000A431A601C4B19602CE08023DB05196839
:101100001A4A0A401A605B6A07930798FFF70AFEBB
:10111000049005910798049A059BFFF70DFE029035
:1011200003910498059900F02BFA01900298039915
:1011300000F026FA00900E4B1B68042B07DC009988
:101140000C48FFF701FD0A4A1368013313600022BF
:10115000054B1A60034A516904230B43536109B0DC
:1011600000BDC0460004014040050020FEFF000015
:1011700030050020AC37000800B583B06B46D8714D
:101180000E48FFF7E1FC0E4B9B689B07FBD40D4814
:10119000FFF7DAFC01235B420122694607310A4866
:1011A000FFF742FB0948FFF7CFFC054B9B689B0705
:1011B000FBD40748FFF7C8FC03B000BDDC370008CC
:1011C000003001400C380008540500202038000889
:1011D0005038000870B5094CA36940252B43A36122
:1011E000A26A80231343A362A36A2B43A362FFF77F
:1011F000C3FFA3691D43A56170BDC046000400483C
:1012000070B5094CA36940252B43A361A2698023D3
:101210001343A361A36A2B43A362FFF7ADFFA36946
:101220001D43A56170BDC04600040048084B002264
:101230005A62196801320A431A60054B5B6A83429D
:10124000FBD3034A136801218B4313607047C046E8
:101250000004004030B587B0264B1B68264A112198
:1012600001A801F06BFDB220FFF7B4FF0320FFF7E8
:10127000B1FF1020FFF7AEFF00250DE001AB5B5D75
:10128000DB001E4AD318185DFFF7BAFF013400E0F7
:101290000024072CF2DD013501AB5B5D002BF7D19B
:1012A000174B1B68174A112101A801F047FDB42014
:1012B000FFF790FF0320FFF78DFF1020FFF78AFF55
:1012C00000250DE001AB5B5DDB000C4AD318185D17
:1012D000FFF796FF013400E00024072CF2DD013512
:1012E00001AB5B5D002BF7D16420FFF79FFF07B0D8
:1012F00030BDC046380500206438000818000020C2
:101300003C0500207038000870B52F4A9369802191
:1013100049010B4393612D4C2D4B236080231B020D
:10132000A36082235B006360E023DB00E3600023B3
:101330002361636180229200A261C93AFF3AE261AF
:1013400023620733E3622000FFF710F92268116877
:1013500040230B4313601F4CA36A10252B43A36249
:101360000320FFF763FFA3691D43A5610320FFF777
:101370005DFF1948FFF7E8FB002404E0174B185DF8
:10138000FFF728FF01341C2CF8D91548FFF7DCFBC8
:10139000B02512E02800FFF71DFF0020FFF71AFF1D
:1013A0001020FFF717FF002403E00020FFF728FFBD
:1013B00001347F2CF9DD0135EDB2B72DEAD90948AA
:1013C000FFF7C2FB70BDC04600100240540500206C
:1013D00000300140000400487C3800081C04002054
:1013E000A4380008CC38000810B5FFF775FC174B7F
:1013F00019681748FFF7A8FBFFF7ACFCFFF73CFDA7
:10140000FFF772FDFFF79EFDFFF7E6FCFFF718FD03
:10141000FFF7C2FC0F48FFF797FBFFF775FF0E4879
:10142000FFF792FB0D4A916804230B4393600B4B2B
:101430001B689B07FBD5094B1A6C1B6C1B051B0D0E
:10144000074A9360FFF706FFECE7C0461400002050
:10145000FC3800081439000828390008002401402D
:10146000007400407047C046002243088B4274D38A
:1014700003098B425FD3030A8B4244D3030B8B4295
:1014800028D3030C8B420DD3FF22090212BA030C9E
:101490008B4202D31212090265D0030B8B4219D37F
:1014A00000E0090AC30B8B4201D3CB03C01A52419F
:1014B000830B8B4201D38B03C01A5241430B8B42E7
:1014C00001D34B03C01A5241030B8B4201D30B03D0
:1014D000C01A5241C30A8B4201D3CB02C01A5241F7
:1014E000830A8B4201D38B02C01A5241430A8B42BA
:1014F00001D34B02C01A5241030A8B4201D30B02A3
:10150000C01A5241CDD2C3098B4201D3CB01C01ABC
:10151000524183098B4201D38B01C01A52414309C6
:101520008B4201D34B01C01A524103098B4201D3B4
:101530000B01C01A5241C3088B4201D3CB00C01A21
:10154000524183088B4201D38B00C01A5241430899
:101550008B4201D34B00C01A5241411A00D20146BE
:10156000524110467047FFE701B5002000F006F831
:1015700002BDC0460029F7D076E770477047C046E5
:1015800070B500220C4B04000D0001F091FA002808
:1015900004D12000290001F0A7F970BD064B0022FC
:1015A0002000290000F04CFE01F09EF980231B066C
:1015B0009C466044F1E7C0460000E041F8B556465D
:1015C0005F464D464446F0B40F00FD0FAA4609039E
:1015D0007C002E005F00450F490A7F0D2943C5009E
:1015E0001803BC46400A570F640DDB0F3843D20086
:1015F0009A4500D1AAE06646A61B002E00DCFFE05B
:101600006346002B39D10300134300D0D9E06B07A8
:1016100009D00F232B40042B05D02B1DAB42AD412D
:101620006D4249191D000B0200D482E0CA4B0134FF
:101630009C4200D1FEE00A005646C84BED081A4015
:101640005007640552020543120B640D002112037A
:101650000B0D1B056405120B1A436308C04CF607FB
:1016600014401C43640064083443280021003CBC3F
:1016700090469946A246AB46F8BDB74B9C42C6D0B1
:1016800080231B041843382E00DDEBE01F2E00DD05
:101690001EE120239B1B9C4603006746BB409846E7
:1016A00013004746F3403B436746BA40571EBA41D2
:1016B00013430200F240EB1A9D42B6411D008A1A04
:1016C0007642911B0B0231D54A02560A002E00D1F8
:1016D000B4E0300001F0F6F90300083B1F2B00DDF9
:1016E000B5E020222900D21AD1409E400A009D4038
:1016F00032439C4200DDB1E01C1B631C1F2B00DD4C
:10170000D5E0202114002800C91A8C40D8408D4013
:101710000443DA40681E854111002543002476E722
:101720004146314300D134E2310045466B0700D0D9
:101730006FE756464807ED08C9080543864B9C42AB
:1017400035D00A036405120B640D7FE76346E31A84
:101750009B46002B00DC8BE06746002F3CD07E4F81
:10176000BC4200D153E780273F0438435B46382B07
:1017700000DCF7E00243501E82410020D2B2531930
:101780004218AB4289411D00494289180B02CDD550
:10179000714B01349C4200D13DE101206F4A6B083E
:1017A0000A4028401843D507054351082FE72B006E
:1017B0000B4300D1CBE180231B030B431A03120B15
:1017C00044E7013E002E6DD1AE1AB5429B41091A85
:1017D0005B42C91A350075E70700174300D116E7C9
:1017E00001235B429C46E3445B46002B00D0E0E0D3
:1017F000AA18AA429B4109185B4259181500C5E76F
:10180000002E75D1661C7605760D012E00DCF3E006
:10181000AE1AB0464545BF410E1A7F42F61B37024D
:1018200000D48FE0551BAA42B641411A76428E1B66
:101830009A464BE756460022002507E7280001F0AC
:1018400041F920300300083B1F2B00DC49E72A0048
:101850002838824000259C4200DC4DE73F49E41ACD
:101860001140D4E60243501E8241D3B2002222E747
:10187000002B00D0F3E0631C9C465B055B0D012B45
:1018800000DC9FE0344B9C4500D1C3E0AA18091846
:10189000AA42804140424118CD07520815434908E9
:1018A0006446B4E62C4B9C4200D0ECE6AFE6110057
:1018B0001F3CE1400C00202B00D17FE04021CB1ADF
:1018C0009A4015436A1E95410021254300242DE7C7
:1018D00033000700203BDF403B00202E70D0402724
:1018E000BE1BB0400243501E824113430022E2E679
:1018F000002C4FD0184CA44500D1ABE08024240428
:1019000076422143382E00DDDFE01F2E00DD43E16B
:101910002027BC1BA1460C004F46BC40A0462C0013
:101920004746F4403C434F46BD406F1EBD41F14029
:101930002C43151BAA429241411A5242891A64460D
:101940009A46BFE641464546314300D0BEE60026F2
:1019500000240025F2E6C046FF070000FFFF7FFFDE
:10196000FFFF0F801F2B59DC2027FF1ABC46070002
:1019700063469F405B46B9461700DF40B8464F4676
:1019800043461F4363469A40531E9A415B463A437F
:10199000D840F4E60C002C435CD0F643002E55D121
:1019A000551BAA42A441411A6442091B9A46644647
:1019B00088E6964FBC4200D0D8E628E6002280E7B1
:1019C00000208FE70B002B43002C00D0C2E0002B3F
:1019D00000D101E10300134300D118E6AB18AB427C
:1019E000B6410918764271180A0200D409E1884A02
:1019F0001D00114064460AE6002C5BD10E002E4308
:101A000000D08AE00100114300D1C2E001001500BE
:101A10009A46FCE56446002100258FE620235B42C0
:101A20009C46DC4463460700DF405B46BC46202BF7
:101A300000D1ACE040235F46DB1B98400243501EC0
:101A40008241634613431A00002098E66F4CA44578
:101A500000D057E70100150064469A46D7E5002CF0
:101A600039D10C002C436ED0DB43002B1AD0674CCD
:101A7000A44568D0382B00DDA4E01F2B00DDAEE0CC
:101A800020240F00E41AA740B9462F00DF40B846D3
:101A9000A3464F46444627435C46A5406C1EA541DD
:101AA000D9403D43AD1895429B4109185B425918F6
:101AB00064466BE60C002C4315D1010011437BD02A
:101AC000010015009A46514CA1E50D43691E8D4158
:101AD0000021ECB22DE74D4CA44534D080242404E1
:101AE0005B422143C6E7040014434ED0ED084C0787
:101AF0002C438025C9082D03294208D0C6082E4250
:101B000005D1D208410711430C009A463100620FFB
:101B1000C900E50011433D4C79E50600164300D1AC
:101B200075E5AE1AB0464545BF410E1A7F42F61B19
:101B3000370200D4F4E5551BAA42B641411A764259
:101B4000891B9A4663E50100150064465FE50022A3
:101B500000257BE5002B3BD00300134315D0ED0897
:101B60004B072B438025C9082D03294207D0C40801
:101B70002C4204D141070B002100D2081343C900B5
:101B80005A0F1143DD00214C41E5204C3FE5002078
:101B900054E700260025D1E534000F00203CE74043
:101BA0003C00202E2BD04027BE1BB1400D43691EA8
:101BB0008D4100212C43BCE6802100260903134CF3
:101BC0000025BBE50D43691E8D410021EDB269E79B
:101BD000010015000D4C1AE50100150017E51C0069
:101BE0000F00203CE7403C00202B0CD04027FB1A84
:101BF00099400D43691E8D410021254352E7002184
:101C0000D4E71D0092E50021F3E7C046FF0700007E
:101C1000FFFF7FFFF0B556464D4644465F46F0B4A1
:101C20001D000E034C00CB0F87B007009246814683
:101C3000360B640D98466AD06D4B9C4235D080229D
:101C4000430F12041343F6001E43C3009946694B29
:101C500000279C460023644402932B0368001B0B5F
:101C6000ED0F51469B46400D009500D178E0604B4A
:101C700098426CD05B46DA004B0F802109040B437D
:101C800013439B465346D9005A4B9C46002360445D
:101C90004246201A6A40924601901F430F2F00D9F6
:101CA000B0E05548BF00C0598746374300D088E0B0
:101CB000002399460233082700260293CDE74346C6
:101CC000B34649460093029B009A9246022B00D0ED
:101CD000BFE1002153460122002689461A40444BA9
:101CE000002136030C0D2405360B2643434C1B05FF
:101CF00026401E437600D207760816434846310038
:101D000007B03CBC90469946A246AB46F0BD3300B6
:101D100003434FD0002E00D1BCE1300000F0D2FED2
:101D200003000B3B1C2B00DDADE11D220100D31A8B
:101D300008393A008F408E40DA40B9461643304B9E
:101D400000279C46002360444442029385E75346A3
:101D50005A4613432CD1002300219B46023397E7B8
:101D60000B4320D05B46002B00D19EE1584600F08B
:101D7000A9FE03000B3B1C2B00DD8FE1020059463E
:101D8000083A91408B461D21CB1A5146D9400B0091
:101D900059460B4351469B469140194B9C46604423
:101DA0004042002374E7002300219B4601336FE784
:101DB00003236DE70023994601330427002602938D
:101DC0004BE703230C27029347E70122D51A382D4E
:101DD00000DCB0E153461A4000210023002689466A
:101DE0007EE700238026994600223603004B77E7E2
:101DF000FF07000001FCFFFF58390008FFFF0F80BC
:101E0000F30300005E4500D972E100D16DE1019B52
:101E10004D46013B01930023340002935B461E02B2
:101E20000B0E1E430B020393330C994633041B0C19
:101E3000494620000093FFF717FB009B3700434300
:101E40000600494620009846FFF794FB2C0C090435
:101E50000C43A04509D9E419731EA74200D95CE1DF
:101E6000A04500D859E1023EE4194346E41A494628
:101E70002000FFF7F9FA0300009A804653434946D1
:101E800020009B46FFF776FB2A040904120C0A4344
:101E900093450DD94346D219013B974200D93AE107
:101EA000934500D837E102235B429C46D219E044B7
:101EB0005B46D21A4346360433439B460399180CBB
:101EC0000B0C1D00059309045B46090C0C001B0458
:101ED0001B0C4443049159436B4368431B190D0C7D
:101EE000EB189C4203D980246402A44660441C0C75
:101EF00009041B04090C20185D18824200D2DEE0A0
:101F000000D1D7E0161A029B9C465D1BAC459B4155
:101F10005B42F61AB74200D106E149463000FFF7AE
:101F2000A3FA009B04004343494630009846FFF75C
:101F300021FB2E0C09040E43B04509D9F619631E86
:101F4000B74200D9F3E0B04500D8F0E0023CF61902
:101F50004346F31A494618000293FFF785FA009B9F
:101F600006004343494602989846FFF703FB2D04B9
:101F700009042D0C0D43A84509D9ED19731EAF4274
:101F800000D9D6E0A84500D8D3E0023EED192404DC
:101F9000210043463143049E059A3000ED1A0B049C
:101FA0000C0C1B0C58436643534354439A19030CBF
:101FB0009B189E4203D980225202944664441A0C14
:101FC00000041B04000C14191B18A54250D34DD05B
:101FD00001231943964A019B94466344002B00DC7D
:101FE000F3E64A0709D00F220A40042A05D00A1D49
:101FF0008A42894149428B4411005A46D20108D590
:102000005A468C4B1A4093468022D2009446019B3C
:102010006344894A934200DD5BE65A46C90850078B
:1020200008435602514601225B058146360B5B0D83
:102030000A4055E680231B031E4211D05A461A421D
:102040000ED15E461E433603360B2A0089467B4B73
:1020500046E6032B00D1E1E0012BBBD11A40BBE6E1
:102060001E433603360B4246744B39E6002BB1D083
:102070007D194A1EAF4252D91100A542A8D1039A38
:102080009A42A5D1A6E703003E00283B9E400023CC
:10209000994654E600F016FD203041E60300524612
:1020A000283B9A400021934677E6504600F00AFD0F
:1020B00020305EE6029B0026AB4200D323E7039E5E
:1020C0000299B44661448846B045B6415B467642C3
:1020D000F619B218013B0291974213D290424FD8A1
:1020E00000D18EE0161A9B460DE7894500D28EE698
:1020F00074084B46F60735005B081D434B46DB076B
:1021000002938BE69742EDD10399029CA142E5D957
:102110003E1A9B46F7E69846CAE61E00A5E6AC4284
:102120003ED874D0110053E70121494252E71C0008
:102130000EE71E002BE71F2D3CDC20230A0058462B
:102140005B1B9840EA4099400243481E81415E462D
:102150001143EE404B0709D00F230B40042B05D051
:102160000B00191D99429B415B42F61833023CD586
:102170005346012200211A40002601238946AFE57B
:1021800002235B429C46039CE344A446029B6344B7
:102190009846A045B6417642F6190293B218B1E6C8
:1021A00003988A1E41008142B6417642F619AD1964
:1021B000039161E71F225242D31A5A46DA401300B4
:1021C000202D29D040225846551BA8400143481EC7
:1021D000814107200B4318400026002809D00F2218
:1021E00000261A401900042ABBD10B0070077602A2
:1021F000360BDB0803439946012253461A4000235D
:102200006EE502998D42BBD89B4600267BE603987B
:102210009842C5D3110032E70020D7E780265B46FD
:1022200036031E433603360B009A8946034B57E5A7
:10223000FF030000FFFFFFFEFE070000FF07000096
:10224000F0B557464E464546E0B40E001100F20F79
:102250009246C500420F180337037400400A4E0F20
:102260007F0A3043CF4E17435A00640D520DDB0FE7
:10227000C900B24200D1E5E001267340A61AB44677
:10228000534500D1AFE0002E00DC0DE1002A3AD129
:1022900003000B4300D0E4E06B0709D00F232B4071
:1022A000042B05D02B1DAB42AD416D427F191D00A3
:1022B0003B0200D488E0BB4B01349C4200D110E1CA
:1022C0003A00B94B51461A4001235007ED0852021B
:1022D00064050543120B640D0B4000212800120316
:1022E0000D0D120B64052D0515436208AF4CDB077D
:1022F0002C401443640064081C4321001CBC90461D
:102300009946A246F0BDA74B9C42C5D080231B0432
:1023100018436346382B00DDFDE01F2B00DD30E164
:10232000624620239B1A02009A40664690460A00A5
:102330009940F24046464B1E994132431143634651
:102340000200DA40691A8D429B410D00BA1A5B42C5
:10235000D71A3B0235D57A02530A98464346002BDA
:1023600000D1C4E0404600F0ADFB0300083B1F2B4A
:1023700000DDC5E020222900D21A4746D1409F4007
:102380000A009D403A439C4200DDC0E01C1B631CD8
:102390001F2B00DDE4E0202114002800C91AD840DA
:1023A0008C408D400443DA40681E85411700254368
:1023B000002471E7424663461A4300D14CE2674667
:1023C00045466B0700D069E7012351467807ED08C1
:1023D000FA080B40054373498C4238D01203640558
:1023E000120B640D79E7002E00DC9AE0002A47D03A
:1023F0006C4A944200D14FE7802212041043624697
:10240000382A00DC08E10143481E81410022C9B29C
:102410004919D219A942BF410D007F42BF183A02A3
:1024200000D442E15F4A0134944200D14EE10120E0
:102430005D4A69083A4028400843D50705435708D4
:102440009A4629E706000E4300D017E714E7290053
:10245000114300D1F9E1802109030A431203120B51
:102460003BE701235B429846C4446346002B72D18C
:10247000691A8D429B413F1A5B42FF1A0D0068E7C3
:1024800002000A4300D107E7012252429046C444A9
:102490006246002A00D0E6E06918A942B6413F181A
:1024A0007642F7190D00BAE7002E00D080E0621CDA
:1024B0005205520D012A00DCF9E06A1A91464D4599
:1024C000B6413A1A7642921B9046120200D499E025
:1024D0004D1BA9428941C71B49427A1A90469A4628
:1024E0003CE752460123002513400022F5E6280070
:1024F00000F0E8FA20300300083B1F2B00DC39E72E
:102500002A002838824000259C4200DC3EE7264F06
:10251000E41A1740C0E60143481E81410022C9B2B7
:1025200010E7002E00D0F1E0621C94465205520DD7
:10253000012A00DCA0E01B4A944500D1C5E06918DF
:10254000A94292413F185242D2194908D5070D437A
:1025500057086446A0E6134B9C4200D0D9E69BE6A0
:1025600011001F3CE1400C00202B00D180E04021F5
:10257000CB1A9A4015436A1E954100272543002433
:102580001FE763460200203BDA406346202B71D0F0
:10259000402366469B1B98400143481E81411143DE
:1025A0000022CFE6FF070000FFFF7FFFFFFF0F8045
:1025B000002C48D0CA4CA24200D1A2E07442A146ED
:1025C0008024240427434C46382C00DDDBE01F2CFC
:1025D00000DD44E14E462024A41B3E00A640A24656
:1025E000B0464C462E00E640B44646466446264376
:1025F0005446A5406C1EA54134002C434D46EF4087
:102600000D1B28E04A4643464D461A4300D0A5E636
:10261000002300240025DEE61F2A5ADC664620221D
:10262000921B060096409146B04662460E00D64088
:10263000424616434A4691404A1E91410200604676
:102640003143C240E4E63C002C435AD0F443A14657
:10265000002C52D14D1BA9428941C71B49427F1A08
:1026600014009A4675E69E4A944200D0C7E613E6E7
:1026700000227FE700208FE7002C00D0C8E03B005D
:102680002B4300D10FE103000B4300D104E669188E
:10269000A9429B413F185B42DF193B0200D41AE17B
:1026A000904B0D001F406446F6E59A4689E63A00D5
:1026B0002A43002C5CD1002A75D102000A4300D1C4
:1026C000CAE007000D009A46E6E5644600220025B0
:1026D00081E662460600203AD6406246B046202A8D
:1026E00000D1B7E040226646921B9040014342462B
:1026F000481E8141114300228AE6794CA24200D053
:1027000061E707000D0014009A46C5E5002C41D191
:102710003C002C4378D0F443A146002C20D0704CD0
:10272000A24271D04C46382C00DDB2E01F2C00DDF7
:10273000BCE02026341BA2463C005646B4404E4620
:10274000A0462C00F440A446444666463443A446C2
:102750005446A54064466E1EB54125434C46E740AD
:102760006D188D4289413F184942CF19140056E631
:10277000002A2FD102000A4300D184E007000D0097
:102780009A46574C88E53D436F1EBD41ECB2002789
:102790000D1B60E7524CA24236D0744280263604AC
:1027A000A1463743BEE702000A4300D174E56A1A26
:1027B00090464545B6413A1A7642921B944612021B
:1027C00000D4F7E54D1BA9428941C71B49427F1A36
:1027D0009A4661E502000A433AD0ED087C072C4393
:1027E0008025FA082D032A4208D0C7082F4205D1B8
:1027F00045072C003A009A46C9080C43670FD200DF
:10280000E5001743364C47E507000D00140043E58B
:102810003A002A4343D002000A4319D0ED087C074E
:102820002C438025FA082D032A4207D0C6082E42E1
:1028300004D147073C003200C9080C43D700620F9F
:10284000E50017439A46264C26E50022002544E57C
:10285000234C21E5002049E700230025BBE54C4639
:102860003E00203CE6404C46B446202C31D040246B
:102870004E46A61BB7403D436C1EA54164462C4303
:1028800000270D1BE7E6802200231203144C0025CD
:10289000A1E53D436F1EBD410027EDB260E7070093
:1028A0000D000F4CF8E407000D00F5E44E463C0027
:1028B000203EF440A0464C46202C0ED040244E46EC
:1028C000A41BA7403D436F1EBD414446002725433E
:1028D00046E70027CFE70D0073E50027F2E7C04683
:1028E000FF070000FFFF7FFF0B0330B5134D1A0BEE
:1028F0004B005B0DC90F0024AB4211DD104CA3420D
:1029000010DC8024640322430E4CE41A1F2C0CDDDF
:102910000D48C31ADA4013005C42002900D11C00A4
:10292000200030BD094BCC18FAE7E040084CA44623
:1029300063449A4013000343EEE7C046FE030000E1
:102940001D0400003304000013040000FFFFFF7F9C
:10295000EDFBFFFF70B5002830D0C317C4185C40F2
:10296000C50F200000F0AEF8174B184A1B1AD21AF8
:102970001F2A18DD164AD21A9440002224035B0550
:10298000240B5B0D0021100024030A0D1205240BFB
:102990001443104A1B0514401C436400ED076408EF
:1029A0002C43210070BD210091400A000B21081A20
:1029B000C4405B052403240B5B0DE3E700250023E3
:1029C00000240022DEE7C0461E040000330400009D
:1029D00013040000FFFF0F8070B5051E28D000F023
:1029E00071F8154B154A1B1AD21A1F2A16DD2C0036
:1029F000134A0025D21A94405A052403240B520D81
:102A0000002124030B0D240B1B0523430D4C120541
:102A1000234013435B002800590870BD0B212C0094
:102A2000081AC440954024035A05240B520DE7E7C9
:102A300000220024E4E7C0461E0400003304000026
:102A400013040000FFFF0F808446101C62468C4672
:102A5000191C634600E0C0461FB500F0F5F80028D9
:102A600001D40021C8421FBD10B500F049F8404212
:102A7000013010BD10B500F0E7F8002801DB0020A0
:102A800010BD012010BDC04610B500F0DDF80028D3
:102A900001DD002010BD012010BDC04610B500F0C2
:102AA0006FF8002801DC002010BD012010BDC046D9
:102AB00010B500F065F8002801DA002010BD0120F3
:102AC00010BDC0461C2101231B04984201D3000CF9
:102AD00010391B0A984201D3000A08391B09984291
:102AE00001D30009043902A2105C40187047C046A7
:102AF00004030202010101010000000000000000C7
:102B0000F0B55F4656464D464446F0B41F035C00A0
:102B1000DB0F9A46194B0E034D00C90F8046360B4A
:102B20006D0D8B4691463F0B640D9D4219D0134BA2
:102B30009C421BD00123A54206D018003CBC904605
:102B40009946A246AB46F0BDBE42F6D1C845F4D187
:102B5000D34510D0002DF0D1304303005A1E9341CD
:102B6000EBE7310001230143E7D1E0E73A430123DA
:102B7000002AE2D1DEE70023DFE7C046FF070000BE
:102B8000F0B55F46444656464D46F0B41F033C0B35
:102B90002C4F0E034D00A3465C008446360B6D0D92
:102BA000C90F9046640DDB0FBD422BD0254FBC42B0
:102BB0002ED0002D0ED13043070081467842784157
:102BC000002C17D15F463A4314D14B460020002B0E
:102BD0000AD006E0002C02D15846024301D09942A7
:102BE0001AD00123484218433CBC90469946A2465D
:102BF000AB46F0BD0028F2D0584258410122404275
:102C00001043F1E737000743D0D002204042EBE702
:102C10005F461743CDD0F8E7A542E2DC05DB5E4511
:102C2000DFD808D000205E45DED24842484101236B
:102C300040421843D8E7C445D3D80020C445F4D354
:102C4000D2E7C046FF070000F0B55F464D46444658
:102C50005646F0B41C03240BA4462F4C0F034D0022
:102C60005E00C90F80463F0B6D0D8B469146760D79
:102C7000DB0FA54220D0284CA64222D0002D12D135
:102C8000384344424441002E20D0002C0DD05C42F9
:102C9000634101245B421C4320003CBC90469946A2
:102CA000A246AB46F0BD002E17D05B4519D05B465F
:102CB0005C4201231C43EFE7390002240143EBD1BE
:102CC000D9E7614602241143E6D1D7E761460A43BA
:102CD000DBD100240028DFD0E9E761460A43E4D1D4
:102CE000E5E7B54203DD01225C421443D4E7B54277
:102CF000CDDB6745DBD809D000246745CCD25946E7
:102D00004C426141012449420C43C5E7C845CED835
:102D10000024C845F3D3BFE7FF070000014B186844
:102D20007047C0469C040020002310B59A4203D08F
:102D3000CC5CC4540133F9E710BD00000CB430B5CD
:102D4000164B9DB00C1E1D6804DA8B2301202B60EE
:102D500040421DE0822302A99B008B810023029048
:102D600008619C4200D0631E8B604B6101235B4273
:102D7000CB81209A21AB2800019300F0ABF8431CD3
:102D800001DA8B232B60002C02D00023029A1370EF
:102D90001DB030BC08BC02B01847C0469C040020DF
:102DA00030B514009BB005001A00002C04DA8B2308
:102DB0000360012040421CE0822368469B0083811F
:102DC0000023009104919C4200D0631E029305935E
:102DD000012369465B42CB8128001E9B00F07AF8F4
:102DE000431C01DA8B232B60002C02D00023009AB5
:102DF00013701BB030BD000007B5009313000A002C
:102E0000010002480068FFF7CBFF0EBD9C040020C4
:102E1000F0B58E6885B007000C00039201939E42C6
:102E200043D890238A89DB001A423ED003250969E2
:102E3000236801985B1A029363695D43EB0F5D1988
:102E4000029B6D1001331B18AB4200D91D005305C6
:102E500010D52900380000F037FB061E14D0029A66
:102E60002169FFF761FFA289194B134080221343A8
:102E7000A38112E02A00380000F086FB061E0CD168
:102E80002169380000F0D4FA0C23402201203B6075
:102E9000A38940421343A38117E0029B2661F618E1
:102EA00026606561019EED1AA560019BB34200D2C8
:102EB0001E0032000399206800F0A5FA0020A368E4
:102EC0009B1BA36023689E19266005B0F0BDC04619
:102ED0007FFBFFFFF0B59FB0029005938B890F0039
:102EE00016001B0610D50B69002B0DD1402100F0F8
:102EF000EBFA38603861002804D10C23029A0138BB
:102F00001360D8E040237B61002306AD6B61203362
:102F10006B761033AB7634002378002B03D1A31BE0
:102F2000049312D003E0252BF9D00134F4E7A31B5E
:102F3000320039000298FFF76BFF431C00D1B4E068
:102F40006A69049B944663446B612378002B00D12B
:102F5000ABE00122002352426A6002A954325218A7
:102F600001342B60EB60AB601370AB65534E21787E
:102F70000522300000F03CFA002807D00123801B16
:102F800083402A68013413432B60EFE72B68DA068D
:102F900004D55322202102A8121811701A0704D553
:102FA00053222B2102A81218117022782A2A03D04A
:102FB000099B00200A210EE0059A111D1268059157
:102FC000002A01DB099204E05242EA600222134324
:102FD0002B6001340BE02278303A092A04D84B43A5
:102FE00001349B180120F6E7002800D009932378CC
:102FF0002E2B1ED163782A2B0AD1059B02341A1D71
:103000001B680592002B01DA01235B42079310E055
:1030100000230A201A0001346B6021783039092915
:1030200004D84243013452180123F6E7002B00D0A4
:103030000792234E21780322300000F0D9F90028AE
:1030400006D04023801B83402A68013413432B6041
:10305000217806221B48661C297600F0C9F9002851
:1030600012D0194B002B06D10722059B073393433F
:103070000833059314E005AB00933A00134B290085
:10308000029800E000BF07E005AB00933A000F4B49
:103090002900029800F08AF80390039B013304D0C2
:1030A0006B69039A9B186B6135E7BB890B985B06CC
:1030B00001D5012040421FB0F0BDC046983900083C
:1030C0009E390008A239000800000000112E0008F7
:1030D000F7B5170001938A680B6900900C009342C2
:1030E00000DA130022003B6043321278002A01D03C
:1030F00001333B6023689B0602D53B6802333B608B
:10310000062523681D401ED0230043331B785A1E1A
:103110009341226892061CD53020E1184331087093
:1031200021005A1C45310978A2184332023311702C
:103130000FE022000123193201990098089EB04740
:10314000431C0ED00135E3683A689B1A9D42F0DBC0
:10315000DAE72200019943320098089DA847431CF2
:1031600002D10120404220E006232068E1683A684D
:1031700003400025042B03D18D1AEB43DB171D40C0
:10318000A3682269934201DD9B1AED180027BD4216
:103190000AD0220001231A3201990098089EB047F4
:1031A000431CDED00137F2E70020FEBDF0B58BB046
:1031B00006920A0043320793059004920A7E0C009F
:1031C000109B6E2A00D1ABE011D8632A22D009D817
:1031D000002A00D1B5E0582A00D0C5E045310A7078
:1031E000814A4FE0642A1DD0692A1BD0BCE0732AB3
:1031F00000D1AAE009D86F2A29D0702A00D0B3E004
:10320000202209680A43226037E0752A1FD0782AF5
:1032100033D0A9E00E001A684236111D19601368F8
:103220003370A4E021681A68080606D4490604D55C
:10323000111D19600023D55E02E0111D196015688B
:10324000002D3BDA2D23049A6D42137036E021687D
:103250001A68080606D4490604D51568111D1960B8
:10326000ADB202E0111D196015685F4B227E039319
:1032700008276F2A1DD00A271BE02200782145323B
:1032800011705A4A19680392081D226818600D6867
:10329000100602D4500600D5ADB2D30702D52023C4
:1032A0001A4322601027002D03D1202322689A435D
:1032B00022602300002243331A7002E00A274A4B9F
:1032C00003936368A360002B09DB04222168914308
:1032D0002160002D05D1049E002B11D07BE0002D34
:1032E00079D0049E28003900FEF744F9039B013E83
:1032F0005B5C280033703900FEF7B6F8051EF1D18B
:10330000082F09D12368DB0706D563682269934239
:1033100002DC3023013E3370049B9B1B23612BE0B6
:1033200009681A68080607D4490605D5111D1960F1
:103330001368A28A1A8004E0111D1960136862697B
:103340001A600023049E236116E01A68111D19609B
:10335000166800216268300000F04AF8002801D0A9
:10336000801B6060636803E02600423632700123F0
:1033700023610023049A1370079B09AA009321007C
:10338000069B0598FFF7A4FE431C02D10120404292
:1033900027E02369320006990598079DA847431C3A
:1033A000F4D0236800259B070FD4099BE06898425E
:1033B00017DA180015E02200012319320699059842
:1033C000079EB047431CE1D00135E368099A9B1A78
:1033D0009D42F0DBE9E72600039B42361B78337001
:1033E0008EE70BB0F0BDC046A9390008BA39000815
:1033F000C9B28218904204D003788B4202D00130C7
:10340000F8E70020704710B5884202D98B1898421F
:1034100001D3002305E09B1A013A08D3995C81543B
:10342000FAE7934203D0CC5CC4540133F9E710BDF2
:1034300070B50500002944D00C1F2368002B00DA6A
:10344000E418280000F0D8F81E4A13681100002B79
:1034500002D16360146031E0A3420DD92268A01844
:10346000834203D118685B688218226063600C6035
:1034700024E0A24203D813005A68002AF9D11E683A
:103480009819A0420BD1216871185818196082420E
:1034900014D110685268411819605A600EE0A042B9
:1034A00002D90C232B6009E021686018824203D105
:1034B000106852684118216062605C60280000F06A
:1034C0009CF870BD48050020032370B5CD1C9D43BA
:1034D000083506000C2D01D20C2501E0002D01DB82
:1034E000A94202D90C23336048E0300000F084F890
:1034F000234B1C681A002100002913D00B685B1BAA
:103500000DD40B2B02D90B60CC181EE08C4202D1DB
:10351000636813601AE04B6863600C0016E00C00EF
:103520004968E9E7174C2368002B03D1300000F00D
:1035300051F820602900300000F04CF8431C18D0EE
:103540000323C41C9C43A0420DD12560300000F031
:1035500054F8200007220B30231D9043C31A0ED0CD
:103560005A42E2500BE0211A300000F033F8431CBD
:10357000EBD10C233000336000F03FF8002070BD29
:103580004805002044050020F8B506000C00150091
:10359000002904D11100FFF797FF040018E0002A6A
:1035A00003D1FFF745FF2C0012E000F027F8854219
:1035B0000ED929003000FFF787FF071E07D0210032
:1035C0002A00FFF7B1FB21003000FFF731FF3C007C
:1035D0002000F8BD002370B5064C050008002360EC
:1035E000FDF750FA431C03D12368002B00D02B6059
:1035F00070BDC04650050020704770470B1F1A6809
:10360000101F002A04DA891804390B68D01804380E
:10361000704700002E2E2F73797374656D2F7372AF
:10362000632F73746D333266302D68616C2F737441
:103630006D3332663078785F68616C5F636F727487
:1036400065782E63000000002E2E2F737973746549
:103650006D2F7372632F73746D333266302D686112
:103660006C2F73746D3332663078785F68616C5F8D
:103670007370692E63000000537461636B2066727F
:10368000616D653A0A000000205230203D2020255F
:103690003038580A00000000205231203D202025FB
:1036A0003038580A00000000205232203D202025EA
:1036B0003038580A00000000205233203D202025D9
:1036C0003038580A0000000020523132203D2025B9
:1036D0003038580A00000000204C52203D202025A0
:1036E0003038580A00000000205043203D2020259B
:1036F0003038580A0000000020505352203D202549
:103700003038580A000000004D6973630A00000059
:10371000204C522F4558435F52455455524E3D2040
:10372000253038580A0000005B48617264466175B4
:103730006C745D0A00000000000000000000000042
:10374000010203040607080957726F6E6720706153
:1037500072616D65746572732076616C75653A206F
:1037600066696C65202573206F6E206C696E65201C
:1037700025640D0A000000000A4F766572666C6FC2
:1037800077210A005369676E616C20284E453535F4
:10379000352054696D657229204672657175656EB4
:1037A00063793A09257520487A0A00005369676EE3
:1037B000616C202846756E6374696F6E2047656E74
:1037C000657261746F7229204672657175656E63EA
:1037D000793A09257520487A0A00000041626F7520
:1037E0007420746F207761697420666F722054585A
:1037F0004520746F206265207365742028666972A5
:1038000073742077616974290A000000446F6E6543
:1038100020666972737420776169740A0000000081
:1038200041626F757420746F207761697420666FD0
:10383000722054584520746F20626520736574208F
:10384000287365636F6E642077616974290A0000CC
:10385000446F6E65207365636F6E64207761697471
:103860000A000000523A20253575204F686D73001C
:10387000463A2025357520487A00000041626F7570
:103880007420746F2073656E6420696E69742063A0
:103890006F6D6D616E647320746F20646973706CFA
:1038A00061790A00446F6E652073656E64696E67A6
:1038B00020696E697420636F6D6D616E647320742E
:1038C0006F20646973706C61790A0000446F6E65E3
:1038D0002077726974696E67207A65726F732074DD
:1038E0006F20616C6C20706167657320286C617358
:1038F000742073746570290A000000005379737492
:10390000656D20636C6F636B3A20257520487A0AD9
:1039100000000000446F6E65206D794750494F42AA
:103920005F496E69740A0000446F6E65206F6C65B4
:10393000645F636F6E666967202861626F757420CB
:10394000746F20656E74657220696E66696E746549
:10395000206C6F6F70290A00041E0008D21C00083A
:10396000D81D0008C81C0008D81D0008E21D00086A
:10397000D81D0008C81C0008D21C0008D21C000872
:10398000E21D0008C81C0008BE1C0008BE1C000880
:10399000BE1C000834200008232D302B2000686C4A
:1039A0004C00656667454647003031323334353662
:1039B000373839414243444546003031323334359B
:0B39C0003637383961626364656600C9
:1039CC00785634120400000001FFFFFFAC04002005
:1039DC000000000000127A0000000000000000004F
:1039EC0000000000000000000000000000000000CB
:1039FC0000000000000000000000000000000000BB
:103A0C0000000000000000000000000000000000AA
:103A1C00000000000000000000000000000000009A
:103A2C00000000000000000000000000000000008A
:103A3C00000000000000000000000000000000007A
:103A4C00000000000000000000000000000000006A
:103A5C00000000000000000000000000000000005A
:103A6C00000000000000000000000000000000004A
:103A7C00000000000000000000000000000000003A
:103A8C00000000000000000000000000000000002A
:103A9C00000000000000000000000000000000001A
:103AAC00000000000000000000000000000000000A
:103ABC0000000000000000000000000000000000FA
:103ACC0000000000000000000000000000000000EA
:103ADC0000000000000000000000000000000000DA
:103AEC0000005F000000000000070007000000005D
:103AFC00147F147F14000000242A7F2A1200000077
:103B0C00231308646200000036495522500000005F
:103B1C000005030000000000001C22410000000012
:103B2C000041221C0000000014083E081400000094
:103B3C0008083E080800000000503000000000009B
:103B4C000808080808000000006060000000000081
:103B5C0020100804020000003E5149453E000000C0
:103B6C0000427F40000000004261514946000000C5
:103B7C002141454B310000001814127F1000000049
:103B8C0027454545390000003C4A494930000000B2
:103B9C00030171090700000036494949360000004D
:103BAC00064949291E0000000036360000000000BE
:103BBC0000563600000000000814224100000000EE
:103BCC001414141414000000004122140800000006
:103BDC000201510906000000324979413E00000003
:103BEC007E1111117E0000007F494949360000000A
:103BFC003E414141220000007F4141221C00000057
:103C0C007F494949410000007F0909090100000072
:103C1C003E4149497A0000007F0808087F000000F7
:103C2C0040417F41400000002040413F0100000026
:103C3C007F081422410000007F40404040000000FB
:103C4C007F020C027F0000007F0408107F00000040
:103C5C003E4141413E0000007F0909090600000079
:103C6C003E4151215E0000007F09192946000000E9
:103C7C00464949493100000001017F010100000063
:103C8C003F4040403F0000001F2040201F0000002C
:103C9C003F4038403F0000006314081463000000EC
:103CAC0007087008070000006151494543000000F7
:103CBC007F4100000000000015167C161500000066
:103CCC00000000417F00000004020102040000001B
:103CDC004040404040000000000102040000000091
:103CEC0020545454780000007F48444438000000AD
:103CFC003844444420000000384444487F0000000D
:103D0C003854545418000000087E090102000000C9
:103D1C000C5252523E0000007F0804047800000050
:103D2C0000447D40000000002040443D00000000A5
:103D3C007F1028440000000000417F40000000007C
:103D4C007C041804780000007C080404780000004F
:103D5C0038444444380000007C141414080000005B
:103D6C00081414187C0000007C08040408000000EF
:103D7C004854545420000000043F444020000000EC
:103D8C003C4040207C0000001C2040201C00000017
:103D9C003C4038403C0000004428102844000000FF
:103DAC000C5050503C0000004464544C4400000043
:103DBC00000836410000000000007F0000000000F9
:103DCC00004136080000000008082A1C080000000A
:103DDC00081C2A080800000001000000AE2000406A
:103DEC00A1A83FC8D300DA32D580D922DB3081FFBD
:103DFC00A4A6AD308D10AFC0A0FFFFFF00000000E7
:103E0C0000000000000000000000000000000000A6
:103E1C000000000000000000000000000000000096
:103E2C000000000000000000000000000000000086
:103E3C000000000000000000000000000000000076
:103E4C000000000000000000000000000000000066
:103E5C000000000000000000000000003C040020F6
:043E6C0032547698BE
:04000005080000BD32
:00000001FF
